:1000000001308A00A52900000A108A100A1182070F
:1000100028340C3401340634223084008313000861
:10002000031920280130F800F701F70B1528F80B09
:1000300014284A30F700F70B1B281E28800B1228C3
:100040000800290EF039F7000F3006057704860006
:10005000000006142B28061008000608F700060EFC
:100060000F39F80008008316061086100611831257
:1000700086100F3083160605F038860083120615A9
:100080000000061400002D207808A90006100000CA
:10009000061400002D207808A80006100F308316E3
:1000A000060586008312290EF700F030F705770861
:1000B0002804F8007808A800A81B3928261C8610F8
:1000C000261886140000061100000610270EA8004E
:1000D0000F30A8052808A900212027080F39A800FB
:1000E000A900212008000F3083160605860006109F
:1000F0008610061183128610061106100F30A2001A
:100100000C200130A1002108033C031C8F28033080
:10011000A90021200530A2000C20A10A832802306A
:10012000A90021200530A2000C20A1012108033CD8
:10013000031CA32821080420A200A6012208A7006E
:100140003320A10A96288A110A12BD29230BA92857
:10015000AC284030A400AD28A40101302202A4073D
:1001600024088038A500A6012508A7003320080030
:100170002108073A0319C6280B3A0319CB28063A77
:100180000319D328023A0319D928DE280130A20026
:10019000A300A620E328A6010130A70033200230E7
:1001A000A2000C20E3280130A2000230A300A62008
:1001B000E328A6011030A7003320E3280130A60071
:1001C0002108A7003320080086010814081EF12822
:1001D0001430A2000C200C30A100B8203730A10050
:1001E000B820881EFC281430A2000C200C30A1007E
:1001F000B8203830A100B820081F07291430A20009
:100200000C200C30A100B8203930A100B820881F84
:1002100012291430A2000C200C30A100B8202F307D
:10022000A100B82008108814081E1F291430A2004D
:100230000C200C30A100B8203430A100B820881E5A
:100240002A291430A2000C200C30A100B82035302F
:10025000A100B820081F35291430A2000C200C3052
:10026000A100B8203630A100B820881F40291430E2
:10027000A2000C200C30A100B8207830A100B820DA
:1002800088100815081E4D291430A2000C200C30CF
:10029000A100B8203130A100B820881E58291430A0
:1002A000A2000C200C30A100B8203230A100B820F0
:1002B000081F63291430A2000C200C30A100B820C4
:1002C0003330A100B820881F6E291430A2000C2002
:1002D0000C30A100B8202D30A100B82008118815DD
:1002E000081E7E291430A2000C200C30A100B8207A
:1002F0004F30A100B8204E30A100B820881E8929B7
:100300001430A2000C200C30A100B8203030A10025
:10031000B820081F94291430A2000C200C30A10032
:10032000B8203D30A100B820881F9F291430A200BA
:100330000C200C30A100B8202B30A100B82088116F
:100340000030F8008A110A12BE2983161F149F1468
:100350001F159F1183131F3083051F149F141F1532
:100360009F1183121F10F03097059D0500308316F2
:100370008600F030880083127328E428BD296300CA
:02400E00313F40
:00000001FF
;PIC16F877
;CRC=3F63  CREATED="20-May-24 22:38"
